:10000000180C0020B9030000890A0000B5030000A5
:1000100000000000000000000000000000000000E0
:10002000000000000000000000000000B503000018
:100030000000000000000000AD0900007D08000085
:10004000B5030000B5030000B5030000B5030000D0
:10005000B5030000B5030000B50300000000000078
:10006000B5030000B5030000712800000000000087
:1000700000000000B5030000B5030000B503000058
:100080000000000000000000B503000010B5064CA1
:100090002378002B07D1054B002B02D0044800E049
:1000A00000BF0123237010BD6C0000200000000081
:1000B00084330000084B10B5002B03D007490848D3
:1000C00000E000BF07480368002B00D110BD064BBD
:1000D000002BFBD09847F9E70000000070000020DB
:1000E000843300008433000000000000024A537E85
:1000F000DB09FCD17047C04600200042174A537804
:100100005BB2002BFBDB164B5380164A1300517E6B
:10011000C909FCD110780131014311705A7ED2090E
:10012000012AFBD01A78D207F8D48422D2009A8010
:100130003F22DA705A7ED209FCD1C02149011961EF
:100140009A70F022196912050A430F211A615A7830
:100150008A43110002220A435A707047000C004083
:10016000134000000020004270B50500FFF7BEFFFD
:100170001F23134C1D40206998432843022520610A
:10018000FFF7B4FF23782B432370FFF7AFFF237BE8
:100190002B43237301232376FFF7A8FF237B1D4303
:1001A0002573237EDB07FCD5658BFFF79FFF0222BB
:1001B0002378ADB293432370FFF798FF280070BDFA
:1001C0000020004230B501240A4A43089B181A78DF
:1001D0000F2520420AD02A4009011143C9B21970E3
:1001E000054BC01803781C43047030BDAA43294056
:1001F0001143F4E7304400414044004170B500230E
:1002000001250226074AC90189180200DA402A425C
:1002100004D0CA1840321478344314700133202BB0
:10022000F3D170BD0044004170B5002301250426C0
:10023000074AC90189180200DA402A4204D0CA18C4
:1002400040321478344314700133202BF3D170BD45
:100250000044004170B5002301250426074AC90166
:1002600089180200DA402A4204D0CA1840321478B1
:10027000B44314700133202BF3D170BD004400410E
:10028000020028321170027E03000020520704D5BC
:10029000588B01234007C00F5840704780230268E5
:1002A0004268DB0213434360704700000368024A60
:1002B0004368134043607047FFFFFBFF036810B5BE
:1002C000DB065B0F03240A4A052B09D14368214052
:1002D0000904134019434160C3695B07FCD410BD96
:1002E000436821400904134019434160F7E7C046C1
:1002F000FFFFFCFF0368DB065B0F052B02D1037ECB
:100300009B07FCD528300078C0B270470A4A0E23FC
:10031000904204D0094A0023904200D10F3380223A
:10032000D2011A43064B5A80064A5A805A7852B272
:10033000002AFBDB7047C04600080042000C004268
:10034000000C00400D4100000123026813430360CC
:100350000368DB07FCD4C369DB07F9D470470223C9
:10036000026813430360C3699B07FCD43022438BAC
:1003700093431A00102313434383C3695B07FCD4E0
:10038000704770B504000D00FFF7C0FF2000FFF7B5
:10039000DBFF1C2223686D0093431A0010231343D4
:1003A0002360FF231D40F83B6562A375E3695B078B
:1003B000FCD470BDFEE700001D481E4970B58842A0
:1003C00004D000231C4CCA18A2422AD300211B4B84
:1003D0001B4A934229D3FF211A4B1B4A8B4393603C
:1003E00002223020194B5A62194B997B8143080035
:1003F000202101430C209973997B81430800082137
:10040000014303209973997B81430A439A738023A4
:10041000104A51680B43536002F08CFD00F0F0F875
:10042000FEE7C55804331560CDE702C3D1E7C046E7
:1004300084330000000000206C0000206C000020CD
:10044000140800200000000000ED00E0FC700041F6
:100450000048004100400041014A024B1A607047C9
:1004600040420F000400002010B5036800219B6883
:10047000984710BD30B5002585B00295099D0468E8
:100480000195089D00956469A04705B030BD000046
:100490001E2270B54B484C4943684C4D93431A009B
:1004A00002231343436008238A691343FE228B61AE
:1004B0002B68D2039B021340454A1343454A93617C
:1004C00013000422DC681442FCD00124424A147058
:1004D0001678264203D0567876B2002EF8DB012437
:1004E0009460547864B2002CFBDB3C4C546054782C
:1004F00064B2002CFBDB8224E4015480547864B2A3
:10050000002CFBDB80269C8CB4439C841024DE688A
:100510002642FCD0324CDC621024DE682642FCD03D
:100520002C68A40E3F2C4AD08026A402B600344387
:100530009C62B22424019C841024DE682642FCD0F4
:1005400002249E8C34439C841024DE682642FCD016
:1005500000249460547864B2002CFBDB214C54607E
:10056000547864B2002CFBDB1C6A1F4E344080269A
:100570001C621C6AB4431C62032393601B4B5360D0
:1005800053785BB2002BFBDB0023FF240B72184A6D
:100590004B728B72CB72174B1A60174A2B6812681A
:1005A00059019B062140D20E5B0F0A431B021343E5
:1005B000124A1385802342681343436070BDFC24B4
:1005C000E401B5E7004000410004004024608000E1
:1005D0000606000000080040000C00400104010075
:1005E000B805FF7D00070300FFFCFFFF03060100C5
:1005F000006CDC020400002020608000002000422B
:1006000013B580246400FFF727FFFFF741FF00F0D8
:1006100095FF21001022264800F08EFC21002022A8
:10062000244800F089FC40222348110000F084FC9B
:100630004921224800F0DEFD00F00EF92048002498
:10064000020001943432009410231621FFF712FFA8
:100650001C48019402000094343210231E21FFF73D
:1006600009FF1948019402000094343210231B2121
:10067000FFF700FF1548019402000094343208236C
:100680001821FFF7F7FE12481F2102000823343219
:1006900001940094FFF7EEFE062000F071F90423A8
:1006A0008480038000F0B4FD00F0F0FF200016BD50
:1006B00088040020880300204803002088050020CB
:1006C000F4010020E80000206401002088000020E0
:1006D000E402002010B50400024B036000F0D7F9DB
:1006E000200010BDA032000010B50400024B0360D2
:1006F000FFF7F0FF200010BDF430000010B504003B
:10070000FFF7F2FF2000642102F067FB200010BD1C
:1007100010B50400024B0360FFF7DCFF200010BDA2
:10072000C830000010B50400FFF7F2FF2000602180
:1007300002F053FB200010BD10B50400024B036013
:10074000FFF7C8FF200010BD9C30000010B504006A
:10075000FFF7F2FF2000902102F03FFB200010BDC8
:1007600010B50400024B0360FFF7B4FF200010BD7A
:100770007030000010B50400FFF7F2FF20007C216C
:1007800002F02BFB200010BD10B50400024B0360EB
:10079000FFF7A0FF200010BD4430000010B504009A
:1007A000FFF7F2FF2000F02102F017FB200010BD40
:1007B00010B50400FFF78EFF2000342102F00DFB7E
:1007C000200010BD70B5184D280002F0CDF9174C6F
:1007D00017492200280002F0F9FA164D280001F00E
:1007E00067FB22001449280002F0F0FA134D144967
:1007F000280001F0BFFE22001249280002F0E6FAAC
:10080000114D280001F076F822001049280002F06E
:10081000DDFA0F4D280001F09DFA280022000D4955
:1008200002F0D4FA70BDC046F401002000000020A0
:1008300089070000E8000020610700006401002033
:10084000000C00423907000088000020110700005A
:10085000E4020020E9060000CC239E20054A116A2C
:100860000B431362044A51685368814303400B43AE
:1008700053607047000400400040004170B5002004
:1008800000F08AFD0F4B104C1D6A104B1A68196856
:1008900023682A400B409A4207D00D4A236811680A
:1008A0006B400B43136001F019FB256072B600F03A
:1008B00075FE002803D08022064B52051A6062B6EE
:1008C00070BDC04600440041AC060020F80700207F
:1008D000FC07002004ED00E0C023FA2170B51E4D96
:1008E0001E4C2A6A1B04224013432B621C4B8900B6
:1008F000186802F085FA1B4A0138210090420CD892
:10090000194C6060C0202A6A00061202120A0243D3
:100910002A620022A260073222602A6A8024120220
:10092000120A2A62C222114B92009858E40308402E
:100930002043985098580E4D05408020C001284310
:100940009850985801400C439C50802212061A601F
:100950008022D2001A6070BD00ED00E0FFFF00FFB2
:1009600004000020FFFFFF0010E000E000E100E0D5
:10097000FF00FFFF704772B600BEFEE700BEFEE755
:10098000002210B5110000F005FB10BDEFF3108040
:10099000844672B6044B9A68FF2109040A439A60A0
:1009A000604680F31088704718ED00E02D4B2E4A0A
:1009B0000121C90672B611605868002811D084461A
:1009C000826A196800292CD1002A0CD101231B0648
:1009D000264A013A264988B005A80EC00620C04321
:1009E0000047244B1847F0B444464D4656465F46F0
:1009F000F0B4002A24D10020186068460146103166
:100A0000F0C9A046A946B246BB46F0C808B00621C8
:100A1000C9438E466046006B99688142D6D362B660
:100A20007047EFF3098020380100F0C144464D467D
:100A300056465F46F0C1196888626046002ADAD0DF
:100A4000186062B610001030F0C8A046A946B24641
:100A5000BB46F0CA02000221C9438E4682F30988D0
:100A600070470000AC07002004ED00E0FD15000019
:100A7000790A00007D09000002480121C9070160D0
:100A8000FEE7000004ED00E008B062B67047704772
:100A90000420704710B504000C2102F09EF92000DC
:100AA00010BD0000F0B5836887B004000D004668F3
:100AB000002B02D01E4B9E4203D0C8211D48FFF7D9
:100AC0005AFF29002000A3689847082803D0D221A4
:100AD0001848FFF750FF184FA36839002000009313
:100AE00000259847A368B3420ED00135062D03D1E7
:100AF000DC211048FFF73FFF6946A368AA008B502E
:100B0000200039009847EDE7009EA6606A46AB00DA
:100B1000391DD35820009847013DF7D239002000F5
:100B20000C31B0470828D6D06660A66007B0F0BD8B
:100B3000910A000018310000B0060020034B8160CC
:100B400008330360024B43607047C0462031000009
:100B5000910A0000F0B58A680B68404F85B00E001E
:100B6000040001923900934205D1083198470025CD
:100B7000280005B0F0BD9847A36800250393039AA9
:100B8000019B9342F4D0390020009847A368039A50
:100B90009A4205D1390020000831019B9847E7E7C8
:100BA0003268934207D13900012508312000019BAA
:100BB00098476D42DCE7039B39007360A36820000F
:100BC0000293039B98470125002816D16B1CA2684D
:100BD00003939B009A51A368019A9A4208D16B1C17
:100BE000052BC5DDFF211E484900FFF7C4FEBFE706
:100BF0001A4920009847039DE6E700239B42B7D19E
:100C0000052D04DD822116488900FFF7B4FE390066
:100C1000019B0831200098472B009A00B258029996
:100C2000013B914201D11D00A2E75A1CF5D13900C8
:100C300020000831029B9847032803D13900200087
:100C4000029B9847A36802932B009A00B25802991E
:100C5000013B9142E7D05A1CF7D1E8E7B0060020EB
:100C600018310000F0B5456889B004000E00002D71
:100C700002D083689D4204D0C8212E484900FFF766
:100C80007AFEA76831002000B847022802D12A491D
:100C90002000B8470028F4D0072846D9A368039558
:100CA00002930497244EAF420AD03100200008314D
:100CB000A847032802D131002000A847A568F1E722
:100CC00002A92000FFF746FF0500002D07DBAB005F
:100CD00002AA311DD35820009847013DF5E7029D37
:100CE000A560310020000C31A84708281DD1A36859
:100CF00031000293200098470027A368AB4207D039
:100D0000013702A9BA008B50200031009847F4E760
:100D1000029B0193A360BB0002AA311DD35820009F
:100D20009847013FF7D2029DDBE76560A56009B0F7
:100D3000F0BDC04618310000B00600200022044B70
:100D40001A8001329A8001321A8101329A817047E9
:100D5000B006002070B5046B0600631E084DA400A9
:100D60001F2B02D82B59002B03D064210548FFF715
:100D700002FEEFF3108372B62E5183F3108870BD1C
:100D8000C00600203C32000000234118884202D0F7
:100D900003700130FAE77047F8B504000D00170042
:100DA000002903D164212648FFF7E5FDEFF3108603
:100DB00072B6244A236A97420CD1002B0CD16E21C3
:100DC0001F48FFF7D8FD86F31088280000F01CF9B3
:100DD000002027E0BB42F6D9AA78002A03D0EA789F
:100DE0000132D2B2EA70626A013B2362934200D2BE
:100DF0006362E368002B16D1226B0133013A934002
:100E00001149E560486903434B61EFF30583002B0B
:100E100005D100F0C3FB002801D000F0EFFB86F302
:100E200010880120F8BDA36922699B009D50A36929
:100E3000002B01D16369A361A369013BA361EEE7C4
:100E400043320000FFFF0000AC070020F8B50400AB
:100E50000D00EFF3108672B6076A002F03D1D2217E
:100E60001B48FFF788FDAB78002B03D0EB780133EC
:100E7000DBB2EB70636A013F27629F4200D2676278
:100E8000E268E560002A14D10123226B1149013A7E
:100E90009340486903434B61EFF30583002B05D171
:100EA00000F07CFB002801D000F0A8FB86F310883E
:100EB000F8BDE36961690133E361E3698B4201D104
:100EC0000023E361E36921699B005A50EEE7C046C5
:100ED00043320000AC07002070B50400EFF3108629
:100EE00072B6C368002B03D16E211248FFF743FD91
:100EF000E568226A6369013222629A420FD8E26988
:100F0000216992005258E260E269002A00D1E3614F
:100F1000E369013BE36186F31088280070BD00217E
:100F20000133E1609A42F6D03731FF310148FFF7D3
:100F300022FDF0E743320000F7B5134C019023681F
:100F40000F001600022B03D9C8211048FFF713FD2C
:100F500022680F4D002A0AD01423013A5343EB189C
:100F60009B89B34203D3C9210848FFF704FD14202D
:100F700023683A00584301993300281800F08AF892
:100F8000236801332360F7BD440700204B32000083
:100F900048070020F8B50E0000241421164B170056
:100FA000164D1A68944207D00B006343EB189B89D7
:100FB000834206D20134F5E79B2111484900FFF72F
:100FC000DAFC142060430F4B281831009E4200D1F8
:100FD000002100F0BFF8051E06D000230134078071
:100FE0008470C3702800F8BD002EFBD1A0210448F6
:100FF0004900FFF7C0FCF5E7440700204807002040
:101000004B320000FFFF000070B585780400002D12
:101010000BD0EFF3108272B6C378012B06DDC378D4
:10102000013BDBB2C37082F3108870BD013D82F3D7
:101030001088084B1B689D4204D3CD210648490007
:10104000FFF799FC1420454304482100401900F0A3
:1010500061F8EAE7440700204B320000480700200F
:1010600010B5064C200000F00BF82000143000F002
:1010700007F82000283000F003F810BD48070020D2
:1010800000238360036043608381C38103824382C2
:1010900070470000F7B504000F0016001D0000297E
:1010A00004D0032A02D904339D4203D36421184893
:1010B000FFF761FC0423A381033B0193A760ABB25C
:1010C000A5899D4205DA019A04350132A581019274
:1010D000F6E7AE4203D26E210D48FFF74CFC012328
:1010E000019AE381A368761B9200AE4207D3991858
:1010F0001960E1891B680131761BE181F5E7002267
:101100001A60E2892760228262826360F7BDC0466E
:101110005232000070B5028AC38904000D009A4261
:1011200005DA03688B4202D843688B4203D2C82198
:101130000748FFF720FCEFF3108272B6A3682B601C
:10114000A560238A01339BB2238282F3108870BD8D
:1011500052320000F8B50400EFF3108772B6038A2C
:1011600089B200258B4219DD8568002D04D19B21B1
:1011700015484900FFF7FFFB2E68238A013B9BB20D
:101180002382238A002B0DD1002E04D0A0210E48EB
:101190004900FFF7F0FB00236382A66087F3108805
:1011A0002800F8BD23689E4202D363689E4204D99A
:1011B000A52105484900FFF7DEFB238A628A9A428F
:1011C000EBDD238AE8E7C04652320000030C07D06B
:1011D000000E0AD118001023054A105CC018704791
:1011E000030AF9D018000823F6E71823F4E7C046ED
:1011F0003C31000010B5044B1860044B19608900A5
:10120000FFF7C2FD10BDC0468407002088070020FC
:10121000F0B52B4B02881B6887B004009A4203DBB1
:1012200064212848FFF7A7FBEFF3108272B6A3787A
:10123000002B03D0E3780133DBB2E370224923882B
:1012400009689B005E5882F31088002E2AD0300077
:10125000FFF7BCFF0500EFF30583002B27D0002329
:1012600003931A4FAB00DB590193002B03D1D2211A
:101270001448FFF780FBAB00F858154A03682100BB
:10128000DB6998470123013DAB409E4304D0300009
:10129000FFF79CFF051EE4D1039B002B02D003A89F
:1012A00000F086FA2000FFF7AFFE07B0F0BD0100A6
:1012B00003A800F051FA03A800F052FAD1E7C046A3
:1012C000880700205932000084070020C006002053
:1012D000FFFF0000036B70B50C005D1E03290ADDE3
:1012E0000F4A1268914206DA1F2D04D80D4A9B005E
:1012F0009B58984204D096210B484900FFF73BFBCE
:10130000EFF3108272B6094BA4001B681C1901236D
:10131000AB4021680B43236082F3108870BDC04648
:1013200088070020C00600205932000084070020F2
:1013300010B50400FFF702FC20000A4B0C302360BC
:1013400000F014F8002320002363074B283063606B
:101350000421FFF719FD200004212C30FFF714FDB4
:10136000200010BDA0320000910A0000002303609D
:101370004360C360836003618361436170470023FE
:101380004160036082609A4201D0C3600361013210
:101390004261436983617047F8B5234E05017419B2
:1013A000EFF3108372B67F276168002907D17219A5
:1013B0009068002834D090686060916061688A8984
:1013C000002A0ED14A686260CA783A40CA7083F334
:1013D0001088BFF36F8F2100EFF3108372B60C00FB
:1013E000E2E78A89013A92B28A818A89002A12D177
:1013F000CA898868002A08D00C008A8183F3108883
:1014000003680A4ADB699847E5E74A686260CA7878
:101410003A40CA70F2E783F31088BFF36F8FDBE7BF
:1014200083F31088F8BDC0468C070020FFFF000042
:1014300070B51D0000230400436002808160C381F9
:101440008381032A01DD012D04D996210448490036
:10145000FFF791FA0023EDB2E5702000A37070BD94
:101460005F3200000023436003808360C381838177
:101470008370C37070470000F8B57F23C5781700EC
:101480001D408389826804000E009BB2002A08D0A8
:10149000002B06D1002904D0012D02D80388032B8C
:1014A00004DCC8210C484900FFF765FAEFF310820D
:1014B00072B6A681E378E7815BB2002B09DB80215D
:1014C000E3782D010B43E370044B5D19AB68636057
:1014D000AC6082F31088F8BD5F3200008C070020FA
:1014E000EFF3108272B600238189994201D0838183
:1014F000013382F3108818007047000010B5044CC7
:101500002000FFF7AFFF20001030FFF7ABFF10BD4A
:101510008C07002010B50400024B0360FFF7DAF8D7
:10152000200010BD7032000010B50400FFF7F2FF7C
:101530002000342101F051FC200010BDF8B500243A
:101540000F4B20211C600F4B0F481C600F4B1C6081
:10155000FFF71AFC0E4E84213000FFF715FC0D4DED
:1015600018212800FFF710FC0B4F34213800FFF73B
:101570000BFC21233760EB60AC60FFF707FAF8BD86
:1015800044070020840700208C07002088070020E3
:10159000C0060020AC070020C407002010B5144C82
:1015A0006069FFF713FEE368834200D32069114BA3
:1015B0008200D3582268002A11D1996A002907D1E4
:1015C000A268904202D80020606010BD6360FCE712
:1015D00080216360084B490519600020F5E7126B14
:1015E0009042F0D080226360034B52051A60F4E70A
:1015F000AC070020C006002004ED00E0F7B5204C49
:1016000063681D6BA36801931E4AAB009E580023BC
:10161000A560636062B63000FFF75EFC07003368C8
:1016200001001B69300098473800FFF7EDFC72B6E7
:10163000F368002B05D10122013DAA406369934361
:1016400063616069FFF7C2FDE3680500834200D370
:1016500025690C4AAB00D3589A6A002A0AD101992D
:101660008D4203D86260019BA360F7BD6360002DCB
:10167000CAD1F8E780226360034B52051A60F2E793
:10168000AC070020C006002004ED00E010B572B6E3
:101690000022074BDA60FFF781FF002801D0FFF737
:1016A000ADFFFFF719F962B6FFF764F9FCE7C04632
:1016B000AC070020F8B504000D0016001F00EFF382
:1016C0000583002B08D14B1E1F2B05D8069B002B32
:1016D00002D1079B002B04D0FA2113484900FFF7E1
:1016E0004AF920003A000C303100FFF748FE002391
:1016F0002563A362EFF3108572B62000FFF72AFB83
:1017000085F31088236808999B6820009847EFF3B9
:10171000108472B6FFF742FF002801D0FFF76EFF7A
:1017200084F31088F8BDC0469432000010B5064C12
:1017300000212000FFF7FCFD044B054A054920006D
:10174000236001F043FB10BDC4070020703200008D
:101750000000002015150000FF2301604360704762
:1017600070B50400EFF3108572B6EFF30583002B1C
:1017700002D14368FF2B04D0AF210B488900FFF74B
:10178000FAF80A4BDA6862601A69D968A2602268BE
:10179000914200D2DA601A68111E00D0116B1961F3
:1017A00085F3108870BDC046C4320000AC0700202D
:1017B00070B50400EFF3108572B6EFF30583002BCC
:1017C00002D14368FF2B04D1C8210B488900FFF7E1
:1017D000D2F8FF236268A1686360084B1961D96879
:1017E0008A4206D2DA60FFF7D9FE002801D0FFF75F
:1017F00005FF85F3108870BDC4320000AC070020DF
:101800000B88032B08D005D8002B09D1054B83602A
:10181000002004E01D2BF9D1034B836008207047A2
:101820000320FCE7910A00007D1800000B88013BB3
:10183000012B03D9024B8360002070470320FCE793
:10184000FD19000010B504001B21FFF743FD200027
:101850001D21FFF73FFD20002121FFF73BFD200068
:101860002021FFF737FD20001F21FFF733FD024B3A
:101870000820A36010BDC046011800000B8870B599
:1018800004000D001B2B17D006D8013B012B11D9EA
:10189000164B0020A36028E01D2BF9D10A208C886C
:1018A000FFF76EF81E230380002384808371038179
:1018B000FFF7AEFC032018E001210220FEF782FCB6
:1018C00001210320FEF77EFCFEF718FC0A20AD88FC
:1018D000FFF756F81C230380002385808371038162
:1018E000FFF796FC0820024BA36070BD01180000B2
:1018F000FD19000010B504000649FFF719FD064B5D
:1019000006222360230054331A70044B2000A36581
:1019100010BDC04645180000C8300000EC32000081
:1019200070B504000D001600002905D0C368D21858
:10193000836801339A4203D9B0210948FFF71BF8A5
:101940000023B34206D06268E95CE068D218115403
:101950000133F6E7E2689B18A2681340E36070BDAC
:10196000E2320000F0B585B00600019115001F00BD
:10197000EFF31083039372B6002903D174211E483C
:10198000FEF7F9FF3369B4680293F3680093029B92
:10199000009A013B9B1A23409D4206D901233D1E1C
:1019A000337518D00025002314E000233375009B05
:1019B0000134EB18A34214D82A0001993000FFF734
:1019C000AFFF002F07D0002DECD0029B009A93426E
:1019D000E9D101233B70039B83F31088280005B0F5
:1019E000F0BD009B0199E41A22003000FFF798FF38
:1019F000019B2A1B1919E1E7E23200000B8873B53D
:101A000004000D001D2B44D00AD8002B04D0032065
:101A1000022B3DD9834238D0414B0020A36037E0F0
:101A2000202B49D0212B00D173E01F2BF4D18E68DD
:101A3000CC79EFF3108372B683F310883269F368C0
:101A40009B1AB2681A4203D0C2213648FEF793FFB0
:101A5000073CE0B203282AD8FEF786FB01A903124F
:101A60000B704870002302223000FFF77BFF0C2030
:101A7000AC79FEF785FF19230380002384718380EE
:101A80008360FFF7C5FB032002E0274B0820A3601B
:101A900076BD0A208D88FEF773FF1E230380002386
:101AA000858083710381FFF7B3FB204BEEE7D121E3
:101AB0001C48FEF760FFDAE78879032814D0042871
:101AC0001ED0022820D1CB7901215D3422780B4031
:101AD0008A431A4316492270CA7D023082439B0012
:101AE0001343CB750138D3E75D34237804241049C0
:101AF000DB07CA7DDB0F9B00A2431343CB75C7E70F
:101B0000CA790B4B1A72BEE7EF210648FEF733FF86
:101B1000B9E70A89064B9A83CA881A84B3E7C04694
:101B200001180000CE3200002D1800007D180000C2
:101B30000020004270B504000D001600002905D0F9
:101B40000369D218836801339A4203D9B82109483E
:101B5000FEF711FF0023B34206D062682169D21854
:101B6000525CEA540133F6E722699B18A2681340DD
:101B7000236170BDE23200000B88032B08D005D82A
:101B8000002B09D1054B8360002004E03C2BF9D1E8
:101B9000034B8360082070470320FCE7910A000094
:101BA000CD1C00000B880200012B06D00320022B65
:101BB00009D0054B0020936005E0603212780320C5
:101BC0009340024A936170472D1C0000004400417D
:101BD0000B880200012B06D00320022B09D0054BF5
:101BE0000020936005E06032127803209340024A9F
:101BF000536170472D1C00000044004110B50400E3
:101C00003A21FFF767FB20003C21FFF763FB200030
:101C10003E21FFF75FFB20003F21FFF75BFB024BFC
:101C20000820A36010BDC046791B00000B8870B56A
:101C30000400032B29D008D8012B1AD00320022B33
:101C400022D01C4B0020A3601EE03E2B21D03F2B56
:101C500025D03C2BF5D10A208D88FEF791FE3D233F
:101C600003800023858083710381FFF7D1FA124B33
:101C70000CE0603422781148934012180220104979
:101C80008B6010708B61013070BD0E4BA36008201B
:101C9000FAE78B68C26D1343C3650B4BF6E7C26D61
:101CA0008B6803209A43E265EED1064B0530A360B2
:101CB000EAE7C046791B0000CD1C0000404400410B
:101CC00000440041A51B0000D11B00000B8870B52B
:101CD00004000320022B24D005D8012B14D0194B6B
:101CE0000020A3601DE03A2B1CD03C2BF7D10A202A
:101CF0008C88FEF745FE3D2303800023848083719A
:101D00000381FFF785FA0BE00022E2656034227858
:101D10000D489340121802200C498B6010708B61A3
:101D2000032070BD0A208D88FEF72AFE3B23038026
:101D30000023858083710381FFF76AFA044B082032
:101D4000A360EEE7791B00004044004100440041DD
:101D50002D1C000010B504000849FFF7E9FA084BF4
:101D60000B222360230054331A70064B073AA365F5
:101D70002300603320001A7010BDC046FD1B000018
:101D8000F4300000F0320000FC239B01C018124B1D
:101D900070B544081D7DED07FCD52025FF351D835A
:101DA0001F3DFF3D0023284205D0A8430388641946
:101DB0001B0A0B702B006400E41A561E93420AD2D1
:101DC0001819008880B2C854B34202D2CD1800124C
:101DD00068700233F2E770BD004000410A88002AB3
:101DE00009D00323022A04D99A4204D1044B836008
:101DF000082318007047034B83600023F9E7C046AF
:101E0000391E0000910A000010B504001521FFF7EB
:101E100061FA20001721FFF75DFA20000C21FFF77F
:101E200059FA20001A21FFF755FA024B0820A36047
:101E300010BDC046DD1D00000B8870B50400152BD9
:101E40001AD004D8013B012B05D8032027E0172B1B
:101E500005D01A2BF9D0124B0020A3601FE00A20F6
:101E60008C88FEF78DFD1823038000238480837106
:101E70000381FFF7CDF9E8E700250A4B0A201D6032
:101E8000094B1D608E88FEF77BFD1623868003803C
:101E900085710581FFF7BCF90820044BA36070BD74
:101EA000DD1D0000F8070020FC070020A11F000036
:101EB00010B504000649FFF73BFA064B02222360E7
:101EC000230074331A70044B2000A36710BDC04672
:101ED000091E0000703000001133000010B506200C
:101EE000FEF74EFD1A23038000238380FFF790F94D
:101EF00010BD0B0E13700B0C53700B0A9370D17046
:101F000070470000F7B506000F0015000093EFF3CF
:101F10001083019372B6002903D198211748FEF768
:101F20002AFD3369F268B168D41A0C40AC4200D97A
:101F30002C0001311A198A4215D8220039003000CC
:101F4000FFF7F8FD009B002B08D0002C14D032695D
:101F5000F3689A4210D10123009A1370019B83F316
:101F600010882000FEBDCD1A2A0039003000FFF78E
:101F7000E1FD621B7919E2E70023EDE7E2320000A0
:101F800037B50D001400002C09D06946002301224A
:101F900007312800013CFFF7B5FFE4B2F3E737BD96
:101FA000F0B50B8895B000AF78600C00BB600C2BCF
:101FB00020D007D8013B012B52D9C34B7A680025AA
:101FC0009360D8E0BB68172B00D140E21A2BF4D104
:101FD000BE4B1B68002B03D1BD49BE48FEF7CBFCAE
:101FE0000C20FEF7CDFC3E230380002383800133C9
:101FF000836033E00B7ACD79FB604E7A002E00D0FF
:10200000CCE0012D4ED0002D0FD0092D00D198E04D
:102010000D2D00D1B3E0B868A479FEF7B1FC192307
:10202000868003808471866018E0FB68C868022B94
:1020300018D0032B21D0012B07D154333B742B0034
:10204000FA6810217918FFF78DFCB868A479FEF7BB
:1020500097FC19238580038084718560FFF7D8F889
:10206000032588E00E233B7422337B740D3BBB7445
:102070002333FB7404222B00E3E70A231021BB74F3
:102080003B7B0422FB7479182B003D747D74FFF7B1
:1020900069FCB868A679FEF773FC19238580038074
:1020A0008671DAE7CB683B60FB68042B20D00A2BF3
:1020B000B1D1864B786819681023FA18FFF719FF19
:1020C00010213300042279183868FFF74BFCB868F8
:1020D000A479FEF755FC19238680038084718660FD
:1020E000FFF796F87C4B1B68002BB9D0774B20E0AC
:1020F0007A4B7868196A1023FA18FFF7FAFE102154
:102100003300FA6879183868FFF72CFCB868A479AE
:10211000FEF736FC19238680038084718660FFF702
:1021200077F86D4B1B68002B9AD0684B1A68002A11
:1021300096D0B8681E60FEF723FC3F23868003809C
:102140008BE7FB6803250A2B15D80123FA68934017
:10215000634A13420FD08B79B8687B60CC68FEF776
:102160000FFC1F2303803B79868083713B7B846057
:10217000C371FFF74DF82800BD4615B0F0BD102320
:10218000CD68F868F9180122FFF7FEFD1021330031
:10219000012279182800FFF7E5FB3CE7012D5ED00E
:1021A000002D51D0092D00D10EE10D2D00D057E7A3
:1021B0006D46F31DDB08DB00EB1A9D463200002361
:1021C0006946E068FFF79EFE10234022F9180020C0
:1021D000667AFFF7D9FD1022FB68BA18D018694655
:1021E000320000F0D5FE3F4A1300117DC907FCD52F
:1021F0002021FC20FF3140011183D0613A4810803A
:102200001A7DD207FCD5394A1A801A7DD207FCD52F
:10221000002219831021791889184878102179181B
:10222000895C00020143FC20800110180232018009
:10223000402AEFD11A7DD207FCD5FC225201DA6187
:102240002B4A1A80AD460BE7FB687F2B00D007E7CF
:102250000620FEF795FB062385800380FEE6F868DE
:10226000CD6802380A2819D800F0C0FD061E1846AD
:1022700056186678188C9D001021002304227918C6
:102280002800FFF73FFE3B69043E18BA194BF6B22F
:102290001840124B98600021FDF7B0FF3200290072
:1022A0007868FFF76DFEDBE6102100230422791821
:1022B0002800FFF727FE3B69043E18BA0D4BF6B223
:1022C0001840064B5860E6E7DD1D0000FC070020C3
:1022D0006A020000FA320000F807002000440041C2
:1022E0009C0700000040004102A5FFFF44A5FFFF3E
:1022F00004A5FFFFE3FF3CF410210023042279181A
:102300002800FFF7FFFD3B69594A1BBA1340594AA1
:10231000043EF6B29361C1E710210023042279182C
:102320002800FFF7EFFD3B69514A1BBA1340514AA1
:10233000043EF6B25361B1E710210023042279185C
:102340002800FFF7DFFD4C4A3B69494811681BBA7A
:102350000340043E0B43F6B213609FE710210023B5
:10236000042279182800FFF7CDFD3B6942491ABACB
:102370003F4B08681A4053425341043E0340F6B2B3
:102380000B608BE710210023791804222800FFF747
:10239000B9FD3B69043E18BA354B00211840F6B22E
:1023A000FDF742FF7AE71021002379180422280064
:1023B000FFF7A8FD3B69043E18BA2D4B00211840D9
:1023C000F6B2FDF747FF69E7FB68022B00D247E64C
:1023D000042B22D9052B00D042E6CC681021002323
:1023E000042279182000FFF78DFD321F2100D2B2A0
:1023F0007868FFF7C5FD3D7C7B7CBC7C2D021D43CE
:10240000FB7C24020A201C43FEF7BAFA2123038036
:102410000023C5808380048120E6CD68102100233D
:10242000012279182800013EFFF76CFDF2B2290065
:102430007868FFF7A5FD0820FEF7A2FA20223B7C72
:102440000280002282803A7BC371827106E60A20F4
:102450008C88FEF795FA182303800023848083710B
:102460000381FEF7D5FE054B7A680825936082E666
:10247000E3FF3CF400440041F8070020391E00004F
:102480000B88032B08D005D8002B09D1054B83609E
:10249000002004E00F2BF9D1034B83600820704724
:1024A0000320FCE7910A0000ED25000010B50400B0
:1024B0000D21FEF70FFF20000F21FEF70BFF20007C
:1024C0001121FEF707FF20001221FEF703FF200075
:1024D0001321FEF7FFFE20001421FEF7FBFE200073
:1024E0001921FEF7F7FE024B0820A36010BDC0467D
:1024F0008124000010B50C88022C27D005D8012CAF
:1025000017D0164B8360002311E0142C0CD0192C2B
:10251000F7D10200743214788A79944207D18B681B
:10252000002B01D00E4A13600E4B83600823180065
:1025300010BD64227C301100FEF79EFF0A4B1C7018
:102540000A4B1A68064B1A600323F0E78022084BF7
:1025500012055A617C30FEF7C3FFF5E7352700000E
:1025600008080020B92700000F08002000080020FC
:102570000044004170B504000D000B49FEF7D8FE81
:102580000A4B032223602300200074331A70084B87
:102590001132A367210000237C30FEF749FF23009E
:1025A0008C331D60200070BDAD2400009C30000005
:1025B0001A33000070B506000A200D001400FEF763
:1025C000DFF91223038000238671C57183800472B2
:1025D000FEF71EFE70BDEFF3108372B60022C260DC
:1025E0000261027583F31088704700000B88F7B50D
:1025F00006000D000D2B24D1414B1A7DD207FCD5CE
:102600002022FF321A833F4B49211B889BB21A0AB2
:102610007F2A00D81912C0243B4FA402CBB20193E9
:1026200020007C600021FDF7E9FD20000021FDF77E
:10263000FBFDBC61354C0097013C002C1AD0C04614
:10264000FAE70D2B06D8013B012B11D9304B0020A6
:10265000B36054E00F2BF9D10A208C88FEF790F973
:10266000102303800023848083710381FEF7D0FD53
:10267000032044E003213700009B8C371B6A386835
:102680001B0C9943019B5918C9B2FDF77AFE3868B3
:10269000FDF765FE8021C0231E4AC9005B00D150B2
:1026A0001D4B022116201C70FDF78CFD0221172006
:1026B000FDF788FDAA68194BEF681A60184B1000E7
:1026C0001F60184B1F60184B1C70FFF784FF380009
:1026D000FFF781FF8023009A1B0593600222134BB2
:1026E0000A201A70AD88FEF74BF90E23858003800F
:1026F00084710481FEF78CFD08200D4BB360FEBD94
:10270000004000413E3F00000044004151C3000032
:102710008124000000E100E00F08002004080020F0
:1027200000080020080800200C0800205B4400413D
:10273000352700000B8870B50400032B19D008D88A
:102740000325012B1DD0022B17D0174B0025A360AA
:1027500017E00F2B17D0192BF7D1743422788B790F
:102760009A420ED1886800281BD0FFF734FF03255A
:1027700007E00E4BA360082503E08C342068FDF7CA
:10278000EEFD280070BD0A208D88FEF7F9F81023B1
:1027900003800023858083710381FEF739FD044B9C
:1027A000E8E7044B1868E0E781240000B92700003F
:1027B000ED250000080800200B88F7B506000C0086
:1027C000022B08D0122B0BD00020012B40D1224B22
:1027D00018700320FEBD8022204B12059A61F8E795
:1027E00003000D7A74330093002D14D010208E79DD
:1027F000CC79FEF7C5F81A4A009B12681B78C260B4
:102800000C220280002283718280C671047245729C
:10281000FEF7FEFCDDE7134F3868FFF7DCFEA37917
:1028200010200193E479FEF7ABF8009B3A681B781F
:10283000C26083716B460C221B790280C371858054
:1028400004724572FEF7E4FC074B0820B360C1E751
:10285000064BB360BEE7C0460F08002000440041AD
:102860000408002000080020F5240000352700009F
:10287000F0B56A4C85B0227E2300920704D5684AE1
:102880001278002A00D0B6E01A7ED2070BD41A7E46
:10289000920700D4B3E05A8BD20600D4AFE05A8B33
:1028A000120700D5ABE05D48FDF700FD03215B4852
:1028B000FDF704FD5B4B5C4C18785C4BC0B219789B
:1028C0002278C9B2D2B2002A02D02278023AD2B219
:1028D000FFF770FE0023237072B6FEF75FFE00283C
:1028E00003D08022524B52051A6062B605B0F0BD8B
:1028F0001A7E5207F0D55B8B02AA1B07DE0FD51D8F
:10290000002B29DA4B4B1F68EFF31083009372B64C
:102910003969FB68BC685E1A264000D00126013484
:102920007318A3420FD8320029003800FFF702F9CC
:10293000009B83F31088FF21002E00D029783748B0
:10294000FDF79EFCC8E7641A220029003800FFF753
:10295000F1F8321B2919E8E73048FDF7CBFC324F7C
:1029600028703B780133DBB23B703B78012B06D1FA
:102970002C4B187003212948FDF7A0FCACE73B78ED
:10298000022B01D1294BF4E72B4B1C68EFF310838A
:10299000009372B62369E268A168013B9B1A0B4061
:1029A0000AD101222275009A82F310881B48002B5D
:1029B0001AD0FDF77BFCDDE7531C481C26758342CB
:1029C00006D8012229002000FEF7AAFF0123EAE72A
:1029D0008E1A731C1A00290020000193FEF7A0FF35
:1029E000019B7242E918EEE7FDF758FC3B78013B8A
:1029F000DBB23B70BEE72000FDF750FCBAE71A7E61
:102A0000920700D474E70548FDF750FC0321034802
:102A1000FDF754FC0022044B1A705DE7000C0042E5
:102A20000F0800200D0800200C0800200E080020D0
:102A300004ED00E0080800200408002003000888D6
:102A400000B5013805280AD800F0D0F90D0D0309AA
:102A50000907064A08209A6000BD054AFAE7054AB8
:102A600000209A60F8E70320F6E7C0461D2B00001F
:102A7000112C0000910A00000A88082A06D80123B8
:102A800083219340490003220B4202D10022024BD2
:102A9000836010007047C0463D2A0000704710B5A3
:102AA0000400182100F099F9200010BD10B50400B1
:102AB0000421FEF70FFC20000621FEF70BFC20008E
:102AC0000921FEF707FC20000A21FEF703FC200085
:102AD0000E21FEF7FFFB20001021FEF7FBFB20007C
:102AE0001C21FEF7F7FB20001E21FEF7F3FB200060
:102AF0001621FEF7EFFB20001821FEF7EBFB20006C
:102B00003B21FEF7E7FB20003D21FEF7E3FB024BF4
:102B10000820A36010BDC0463D2A000003000888BD
:102B200010B50138052816D800F060F90F0F1511FF
:102B300015030A208C88FDF723FF07230380002359
:102B4000848083710381FEF763FB032002E0082089
:102B5000034A9A6010BD034A00209A60FAE7C04613
:102B6000F52C00003D2A000010B504001149FEF7C5
:102B7000DFFB114B01222360230074331A700F4BCB
:102B80002200E36723000E48C0339861186080324A
:102B900020005A601F210022A030D8611A751962E6
:102BA0005A629A629960DA601A61183320001A75C5
:102BB00010BDC046AD2A000044300000493300007B
:102BC0002C33000070B58D790400002D13D1010065
:102BD0007A310B780133DBB20B7093420AD10620B5
:102BE000FDF7CEFE092301000380858023682000C5
:102BF0001B6A984770BD0A200E89FDF7C1FE0A23A3
:102C0000038000230100838085710681EEE70000C8
:102C10000B8870B504001E2B1FD017D8092B4ED07F
:102C200008D8012B25D00325022B46D02E4B00259A
:102C3000A36042E0102B10D0182B0ED00A2BF5D138
:102C40008E212A484900FDF796FE36E02E2B04D04F
:102C500008D8252B01D02A2BE8D104222000FFF729
:102C6000B1FF29E03D2BF8D0432BF6D0342BDDD13A
:102C7000F3E700257A3425700620FDF781FE17233F
:102C800085800380FEF7C4FA0620FDF779FE0F2346
:102C900085800380FEF7BCFA0620FDF771FE1D2338
:102CA00085800380FEF7B4FA0620FDF769FE3C2319
:102CB00085800380FEF7ACFA0325280070BD030071
:102CC00076331D8806206A1C1A80FDF759FE0423FE
:102CD00003802368858001001B6A20009847044B0D
:102CE0000825A360E9E7C0463D2A00003433000010
:102CF0001D2B00000B8870B504001C2B11D015D8BB
:102D00000A2B0AD8092B4BD2012B1ED00320022BF1
:102D100045D02C4B0020A36041E00E2B01D0162B98
:102D2000F7D104222000FFF74DFF37E02C2BF8D01D
:102D300004D8232BF5D0282BEBD1F2E73B2BF0D096
:102D4000412BEED0322BE4D1EBE7030000257A33A0
:102D50001D700620FDF714FE152385800380FEF705
:102D600057FA1020FDF70CFE0D2303802300C0341A
:102D7000D83383608580C460FEF74AFA0620FDF7E9
:102D8000FFFD1B2385800380FEF742FA0620FDF736
:102D9000F7FD3A2385800380FEF73AFA032070BDE1
:102DA0000A20FDF7EDFD230078331B880522838080
:102DB0000023028083710381FEF72AFA024B082068
:102DC000A360ECE73D2A0000792A00000B0010B553
:102DD0000100180000F0A0F810BD10B500F001F8D7
:102DE00010BD10B500F0CAF810BD000002B4714665
:102DF00049084900095C49008E4402BC7047C0463E
:102E0000002243088B4274D303098B425FD3030A29
:102E10008B4244D3030B8B4228D3030C8B420DD33C
:102E2000FF22090212BA030C8B4202D312120902CA
:102E300065D0030B8B4219D300E0090AC30B8B4208
:102E400001D3CB03C01A5241830B8B4201D38B03B6
:102E5000C01A5241430B8B4201D34B03C01A52415B
:102E6000030B8B4201D30B03C01A5241C30A8B429E
:102E700001D3CB02C01A5241830A8B4201D38B0289
:102E8000C01A5241430A8B4201D34B02C01A52412D
:102E9000030A8B4201D30B02C01A5241CDD2C3099F
:102EA0008B4201D3CB01C01A524183098B4201D31B
:102EB0008B01C01A524143098B4201D34B01C01A06
:102EC000524103098B4201D30B01C01A5241C3087E
:102ED0008B4201D3CB00C01A524183088B4201D3ED
:102EE0008B00C01A524143088B4201D34B00C01AD9
:102EF0005241411A00D20146524110467047FFE745
:102F000001B5002000F006F802BDC0460029F7D048
:102F100076E770477047C04670B5054C0500130052
:102F2000201E04D00A000220290000E000BF70BD6E
:102F30000000000070B500260C4D0D4C641BA41061
:102F4000A64209D1002600F003FA0A4D0A4C641B80
:102F5000A410A64205D170BDB300EB5898470136C6
:102F6000EEE7B300EB5898470136F2E75C33000018
:102F70005C3300005C3300007433000010B5034B79
:102F80000100186800F00EF810BDC04608000020CF
:102F9000002310B59A4200D110BDCC5CC45401335B
:102FA000F8E7000070B50500002910D00C1F236859
:102FB000002B00DAE418280000F03EF81D4A1368E0
:102FC000002B05D163601460280000F036F870BD56
:102FD000A34209D9216860188342F3D118685B685D
:102FE00041182160EEE713005A68002A01D0A2427E
:102FF000F9D919685818A0420BD120680918581837
:1030000019608242E0D110685268411819605A6014
:10301000DAE7A04202D90C232B60D5E721686018BB
:10302000824203D1106852684118216062605C607E
:10303000CAE7C04610080020704770470000000033
:1030400000000000890700009D070000A50A00009D
:1030500069040000650C0000B5160000750400004E
:10306000990D00004D0E000000000000000000005F
:103070006107000075070000A50A00006904000050
:10308000650C0000B516000075040000990D0000E5
:103090004D0E000000000000000000003907000095
:1030A0004D070000A50A000069040000650C00003F
:1030B000B516000075040000990D00004D0E0000CB
:1030C00000000000000000001107000025070000BC
:1030D000A50A000069040000650C0000B516000098
:1030E00075040000990D00004D0E00000000000066
:1030F00000000000E9060000FD060000A50A00002F
:1031000069040000650C0000B5160000750400009D
:10311000990D00004D0E00007165705F68736D00C1
:1031200000000000000000008F0A0000950A000067
:10313000A50A000069040000650C000000010202FD
:10314000030303030404040404040404050505053F
:10315000050505050505050505050505060606061B
:1031600006060606060606060606060606060606FF
:1031700006060606060606060606060607070707EB
:1031800007070707070707070707070707070707CF
:1031900007070707070707070707070707070707BF
:1031A00007070707070707070707070707070707AF
:1031B000070707070707070707070707080808089B
:1031C000080808080808080808080808080808087F
:1031D000080808080808080808080808080808086F
:1031E000080808080808080808080808080808085F
:1031F000080808080808080808080808080808084F
:10320000080808080808080808080808080808083E
:10321000080808080808080808080808080808082E
:10322000080808080808080808080808080808081E
:1032300008080808080808080808080871665F6197
:1032400063740071665F616374710071665F6479B5
:103250006E0071665F6D656D0071665F7073007101
:10326000665F74696D6500000000000000000000EA
:103270001515000029150000A50A000069040000CA
:10328000650C0000B516000075040000990D0000E3
:103290004D0E000071786B0000000000000000007F
:1032A000D5060000B1070000A50A0000690400006F
:1032B000650C0000B516000075040000990D0000B3
:1032C0004D0E000071786B5F6D75746578002E2E61
:1032D0002F736F757263652F414F4144432E6370A6
:1032E000700066775F706970652E68004144430026
:1032F000496E74657272757074002E2E2F736F751F
:103300007263652F44656C65676174652E637070C8
:103310000044656C65676174650049324320536CF5
:103320006176650000000000000000009D2A00009A
:103330009F2A00002E2E2F736F757263652F5379AD
:103340007374656D2E6370700053595354454D006E
:10335000F8B5C046F8BC08BC9E467047B5000000F2
:10336000C50700003D0D000061100000FD140000C5
:103370002D170000F8B5C046F8BC08BC9E46704743
:043380008D000000BC
:103384000000000040420F000C000020000000007C
:103394000000000000000000000000000000000029
:1033A4000000000000000000000000000000000019
:1033B4000000000000000000000000000000000009
:1033C40000000000000000000000000000000000F9
:1033D40000000000000000000000000000000000E9
:0C33E400000000000000000000000000DD
:00000001FF
